:100000000C942A000C943C000C943C000C943C0092
:100010000C943C000C943C000C943C000C943C0070
:100020000C943C000C943C000C943C000C943C0060
:100030000C943C000C943C000C943C000C943C0050
:100040000C943C000C943C000C943C000C943C0040
:100050000C943C0011241FBECFE5D8E0DEBFCDBF1D
:1000600010E0A0E6B0E001C01D92A136B107E1F7B3
:100070000E9400040C940D040C940000DF93CF93B5
:10008000CDB7DEB729970FB6F894DEBF0FBECDBF50
:1000900089836A834B8319868981843010F421E037
:1000A000298718868A81883010F431E0388789855D
:1000B00098858923882309F4EAC08B81813009F06F
:1000C0006FC08981282F30E03F832E838E819F81EE
:1000D0008130910549F12E813F81223031052CF488
:1000E0008E819F81009761F0D2C02E813F812230A6
:1000F000310571F18E819F8183309105E9F1C7C08F
:10010000AAE3B0E0EAE3F0E08081482F8A81282F5B
:1001100030E081E090E0022E02C0880F991F0A941F
:10012000E2F7842B8C93B3C0A7E3B0E0E7E3F0E001
:100130008081482F8A81282F30E081E090E0022ED4
:1001400002C0880F991F0A94E2F7842B8C939FC0FA
:10015000A4E3B0E0E4E3F0E08081482F8A81282F17
:1001600030E081E090E0022E02C0880F991F0A94CF
:10017000E2F7842B8C938BC0A1E3B0E0E1E3F0E0E5
:100180008081482F8A81282F30E081E090E0022E84
:1001900002C0880F991F0A94E2F7842B8C9377C0D2
:1001A0008B81882309F073C08981282F30E03D833B
:1001B0002C838C819D818130910559F12C813D8169
:1001C000223031052CF48C819D81009769F05FC04D
:1001D0002C813D812230310589F18C819D818330D4
:1001E000910509F440C053C0AAE3B0E0EAE3F0E0AF
:1001F0008081482F8A81282F30E081E090E0022E14
:1002000002C0880F991F0A94E2F7809584238C938B
:100210003EC0A7E3B0E0E7E3F0E08081482F8A81A9
:10022000282F30E081E090E0022E02C0880F991F55
:100230000A94E2F7809584238C9329C0A4E3B0E06C
:10024000E4E3F0E08081482F8A81282F30E081E0CC
:1002500090E0022E02C0880F991F0A94E2F7809561
:1002600084238C9314C0A1E3B0E0E1E3F0E080814B
:10027000482F8A81282F30E081E090E0022E02C0D2
:10028000880F991F0A94E2F7809584238C9329960E
:100290000FB6F894DEBF0FBECDBFCF91DF910895AA
:1002A000DF93CF93CDB7DEB729970FB6F894DEBFB3
:1002B0000FBECDBF89836A834B83198689818430C1
:1002C00010F421E0298718868A81883010F431E003
:1002D0003887898598858923882309F4EAC08B812A
:1002E000882309F074C08981282F30E03F832E8352
:1002F0008E819F818130910559F12E813F8122307D
:1003000031052CF48E819F81009769F0D2C02E8137
:100310003F812230310589F18E819F8183309105A3
:1003200009F440C0C6C0ABE3B0E0EBE3F0E080818D
:10033000482F8A81282F30E081E090E0022E02C011
:10034000880F991F0A94E2F7809584238C93B1C09B
:10035000A8E3B0E0E8E3F0E08081482F8A81282F0D
:1003600030E081E090E0022E02C0880F991F0A94CD
:10037000E2F7809584238C939CC0A5E3B0E0E5E38D
:10038000F0E08081482F8A81282F30E081E090E0E2
:10039000022E02C0880F991F0A94E2F780958423E9
:1003A0008C9387C0A2E3B0E0E2E3F0E08081482FC5
:1003B0008A81282F30E081E090E0022E02C0880F71
:1003C000991F0A94E2F7809584238C9372C08B81E5
:1003D000813009F06EC08981282F30E03D832C8365
:1003E0008C819D818130910549F12C813D812230A4
:1003F00031052CF48C819D81009761F05AC02C81CD
:100400003D812230310571F18C819D8183309105D0
:10041000E9F14FC0ABE3B0E0EBE3F0E08081482FBF
:100420008A81282F30E081E090E0022E02C0880F00
:10043000991F0A94E2F7842B8C933BC0A8E3B0E0A9
:10044000E8E3F0E08081482F8A81282F30E081E0C6
:1004500090E0022E02C0880F991F0A94E2F7842BC5
:100460008C9327C0A5E3B0E0E5E3F0E08081482F5E
:100470008A81282F30E081E090E0022E02C0880FB0
:10048000991F0A94E2F7842B8C9313C0A2E3B0E087
:10049000E2E3F0E08081482F8A81282F30E081E07C
:1004A00090E0022E02C0880F991F0A94E2F7842B75
:1004B0008C9329960FB6F894DEBF0FBECDBFCF91B7
:1004C000DF910895DF93CF93CDB7DEB727970FB6AF
:1004D000F894DEBF0FBECDBF8A836B8319821F8263
:1004E0008A81843010F421E02F831E828B81883032
:1004F00010F431E03E838F814E818423882309F4F8
:1005000068C08A81282F30E03D832C834C815D8137
:100510004130510541F18C819D818230910534F447
:100520002C813D812115310561F055C04C815D81E3
:100530004230510551F18C819D8183309105B9F193
:100540004AC0E9E3F0E08081282F30E08B81882FDA
:1005500090E0A90102C0559547958A95E2F7CA0136
:100560008170898338C0E6E3F0E08081282F30E095
:100570008B81882F90E0A90102C0559547958A95F7
:10058000E2F7CA018170898326C0E3E3F0E080814D
:10059000282F30E08B81882F90E0A90102C055956B
:1005A00047958A95E2F7CA018170898314C0E0E318
:1005B000F0E08081282F30E08B81882F90E0A90126
:1005C00002C0559547958A95E2F7CA0181708983E3
:1005D00002C08FEF8983898127960FB6F894DEBF1A
:1005E0000FBECDBFCF91DF910895DF93CF9300D0A1
:1005F00000D0CDB7DEB789836A838981843090F5D6
:100600008981282F30E03C832B838B819C81813032
:100610009105D1F02B813C81223031052CF48B8166
:100620009C81009761F01EC02B813C8122303105F6
:1006300081F08B819C818330910581F013C0EBE3C5
:10064000F0E08A8180830EC0E8E3F0E08A81808355
:1006500009C0E5E3F0E08A81808304C0E2E3F0E0D2
:100660008A8180830F900F900F900F90CF91DF9130
:100670000895DF93CF93CDB7DEB781E064E041E02A
:100680000E943E0081E065E041E00E943E0081E082
:1006900066E040E00E943E0081E067E041E00E94A9
:1006A0003E00ADE2B0E0EDE2F0E0808180618C934D
:1006B000ADE2B0E0EDE2F0E0808180648C93CF9118
:1006C000DF910895DF93CF93CDB7DEB781E064E08B
:1006D00040E00E943E0081E065E040E00E943E0074
:1006E00081E066E041E00E943E0081E067E040E09A
:1006F0000E943E00ADE2B0E0EDE2F0E08081806477
:100700008C93CF91DF910895DF93CF930F92CDB764
:10071000DEB78983EFE2F0E0898180838091600019
:10072000813029F481E064E041E00E943E00EEE285
:10073000F0E080818823DCF70F90CF91DF9108955E
:10074000DF93CF93CDB7DEB7EEE2F0E08081882370
:10075000DCF7EFE2F0E08081CF91DF910895DF9345
:10076000CF93CDB7DEB7AAE2B0E0EAE2F0E0808155
:1007700080618C93AAE2B0E0EAE2F0E080818860D8
:100780008C93A0E4B0E0E0E4F0E0808182608C93A0
:10079000A0E4B0E0E0E4F0E0808184608C93E9E2E2
:1007A000F0E087E68083CF91DF910895DF93CF93C8
:1007B0000F92CDB7DEB78983ECE2F0E089818083C8
:1007C000EBE2F0E080818295869586958370882F94
:1007D00090E081709070009799F30F90CF91DF9126
:1007E0000895DF93CF93CDB7DEB7EBE2F0E08081E1
:1007F0008823DCF7ECE2F0E08081CF91DF9108956F
:10080000DF93CF93CDB7DEB70E9439030E94AF03C9
:0E0810000E94F1030E948403FBCFF894FFCFF7
:00000001FF
